{
  "contractName": "Counter",
  "abi": [
    {
      "inputs": [],
      "stateMutability": "nonpayable",
      "type": "constructor"
    },
    {
      "inputs": [],
      "name": "Number",
      "outputs": [
        {
          "internalType": "uint256",
          "name": "",
          "type": "uint256"
        }
      ],
      "stateMutability": "view",
      "type": "function",
      "constant": true
    },
    {
      "inputs": [
        {
          "internalType": "uint256",
          "name": "num",
          "type": "uint256"
        }
      ],
      "name": "add",
      "outputs": [],
      "stateMutability": "nonpayable",
      "type": "function"
    }
  ],
  "bytecode": "0x608060405234801561001057600080fd5b50600080819055506101df806100276000396000f3fe608060405234801561001057600080fd5b50600436106100365760003560e01c80631003e2d21461003b578063624de72514610057575b600080fd5b610055600480360381019061005091906100cd565b610075565b005b61005f61008c565b60405161006c9190610109565b60405180910390f35b806000546100839190610153565b60008190555050565b60005481565b600080fd5b6000819050919050565b6100aa81610097565b81146100b557600080fd5b50565b6000813590506100c7816100a1565b92915050565b6000602082840312156100e3576100e2610092565b5b60006100f1848285016100b8565b91505092915050565b61010381610097565b82525050565b600060208201905061011e60008301846100fa565b92915050565b7f4e487b7100000000000000000000000000000000000000000000000000000000600052601160045260246000fd5b600061015e82610097565b915061016983610097565b9250827fffffffffffffffffffffffffffffffffffffffffffffffffffffffffffffffff0382111561019e5761019d610124565b5b82820190509291505056fea2646970667358221220a31d04b2e81efd0bba61a5385fd89b22bd73793ee981364ddb90278d5ba8694e64736f6c634300080b0033",
  "immutableReferences": {},
  "source": "// SPDX-License-Identifier: GPL-3.0\npragma solidity >=0.7.0 <0.9.0;\n\ncontract Counter {\n\n    uint public Number;\n\n    constructor() {\n        Number = 0;\n    }\n\n\n    // Add\n    function add(uint num) public {\n        Number = Number + num;\n    }\n    //\n}\n",
  "sourcePath": "/Users/linchunliang/Desktop/StuCode/BlockChainStudy/w1/01/code/contracts/Counter.sol",
  "compiler": {
    "name": "solc",
    "version": "0.8.11+commit.d7f03943.Emscripten.clang"
  },
  "schemaVersion": "3.4.5",
  "updatedAt": "2022-07-18T14:50:48.670Z",
  "networkType": "ethereum",
  "devdoc": {
    "kind": "dev",
    "methods": {},
    "version": 1
  },
  "userdoc": {
    "kind": "user",
    "methods": {},
    "version": 1
  }
}