{
	"data": {
		"bytecode": {
			"linkReferences": {},
			"object": "608060405234801561001057600080fd5b506104d4806100206000396000f3fe608060405234801561001057600080fd5b50600436106100365760003560e01c8063b93f9b0a1461003b578063d4d7a0e91461006b575b600080fd5b610055600480360381019061005091906101b7565b61009b565b6040516100629190610295565b60405180910390f35b610085600480360381019061008091906101b7565b610133565b6040516100929190610295565b60405180910390f35b600080604051806020016100ae90610195565b6020820181038252601f19601f820116604052509050600060ff60f81b30856040516020016100dd91906102b0565b60405160208183030381529060405280519060200120848051906020012060405160200161010e9493929190610247565b6040516020818303038152906040528051906020012090508060001c92505050919050565b6000808260405160200161014791906102b0565b6040516020818303038152906040528051906020012060405161016990610195565b8190604051809103906000f5905080158015610189573d6000803e3d6000fd5b50905080915050919050565b6101008061039f83390190565b6000813590506101b181610387565b92915050565b6000602082840312156101cd576101cc610375565b5b60006101db848285016101a2565b91505092915050565b6101ed816102cb565b82525050565b6102046101ff826102cb565b61033d565b82525050565b61021b610216826102dd565b61034f565b82525050565b61023261022d82610309565b610359565b82525050565b61024181610333565b82525050565b6000610253828761020a565b60018201915061026382866101f3565b6014820191506102738285610221565b6020820191506102838284610221565b60208201915081905095945050505050565b60006020820190506102aa60008301846101e4565b92915050565b60006020820190506102c56000830184610238565b92915050565b60006102d682610313565b9050919050565b60007fff0000000000000000000000000000000000000000000000000000000000000082169050919050565b6000819050919050565b600073ffffffffffffffffffffffffffffffffffffffff82169050919050565b6000819050919050565b600061034882610363565b9050919050565b6000819050919050565b6000819050919050565b600061036e8261037a565b9050919050565b600080fd5b60008160601b9050919050565b61039081610333565b811461039b57600080fd5b5056fe608060405234801561001057600080fd5b5060e18061001f6000396000f3fe6080604052348015600f57600080fd5b506004361060325760003560e01c80633408e470146037578063557ed1ba146051575b600080fd5b603d606b565b604051604891906088565b60405180910390f35b60576073565b604051606291906088565b60405180910390f35b600046905090565b600042905090565b60828160a1565b82525050565b6000602082019050609b6000830184607b565b92915050565b600081905091905056fea2646970667358221220a7d13e8222dbb2dd2dfc0640c4a721f864a56e584c8853329daeecd379908e0764736f6c63430008070033a2646970667358221220c8f00b0f4e580a90722d62eee7f794e3fad80edb9ab6a79fa2135c14d92f271364736f6c63430008070033",
			"opcodes": "PUSH1 0x80 PUSH1 0x40 MSTORE CALLVALUE DUP1 ISZERO PUSH2 0x10 JUMPI PUSH1 0x0 DUP1 REVERT JUMPDEST POP PUSH2 0x4D4 DUP1 PUSH2 0x20 PUSH1 0x0 CODECOPY PUSH1 0x0 RETURN INVALID PUSH1 0x80 PUSH1 0x40 MSTORE CALLVALUE DUP1 ISZERO PUSH2 0x10 JUMPI PUSH1 0x0 DUP1 REVERT JUMPDEST POP PUSH1 0x4 CALLDATASIZE LT PUSH2 0x36 JUMPI PUSH1 0x0 CALLDATALOAD PUSH1 0xE0 SHR DUP1 PUSH4 0xB93F9B0A EQ PUSH2 0x3B JUMPI DUP1 PUSH4 0xD4D7A0E9 EQ PUSH2 0x6B JUMPI JUMPDEST PUSH1 0x0 DUP1 REVERT JUMPDEST PUSH2 0x55 PUSH1 0x4 DUP1 CALLDATASIZE SUB DUP2 ADD SWAP1 PUSH2 0x50 SWAP2 SWAP1 PUSH2 0x1B7 JUMP JUMPDEST PUSH2 0x9B JUMP JUMPDEST PUSH1 0x40 MLOAD PUSH2 0x62 SWAP2 SWAP1 PUSH2 0x295 JUMP JUMPDEST PUSH1 0x40 MLOAD DUP1 SWAP2 SUB SWAP1 RETURN JUMPDEST PUSH2 0x85 PUSH1 0x4 DUP1 CALLDATASIZE SUB DUP2 ADD SWAP1 PUSH2 0x80 SWAP2 SWAP1 PUSH2 0x1B7 JUMP JUMPDEST PUSH2 0x133 JUMP JUMPDEST PUSH1 0x40 MLOAD PUSH2 0x92 SWAP2 SWAP1 PUSH2 0x295 JUMP JUMPDEST PUSH1 0x40 MLOAD DUP1 SWAP2 SUB SWAP1 RETURN JUMPDEST PUSH1 0x0 DUP1 PUSH1 0x40 MLOAD DUP1 PUSH1 0x20 ADD PUSH2 0xAE SWAP1 PUSH2 0x195 JUMP JUMPDEST PUSH1 0x20 DUP3 ADD DUP2 SUB DUP3 MSTORE PUSH1 0x1F NOT PUSH1 0x1F DUP3 ADD AND PUSH1 0x40 MSTORE POP SWAP1 POP PUSH1 0x0 PUSH1 0xFF PUSH1 0xF8 SHL ADDRESS DUP6 PUSH1 0x40 MLOAD PUSH1 0x20 ADD PUSH2 0xDD SWAP2 SWAP1 PUSH2 0x2B0 JUMP JUMPDEST PUSH1 0x40 MLOAD PUSH1 0x20 DUP2 DUP4 SUB SUB DUP2 MSTORE SWAP1 PUSH1 0x40 MSTORE DUP1 MLOAD SWAP1 PUSH1 0x20 ADD KECCAK256 DUP5 DUP1 MLOAD SWAP1 PUSH1 0x20 ADD KECCAK256 PUSH1 0x40 MLOAD PUSH1 0x20 ADD PUSH2 0x10E SWAP5 SWAP4 SWAP3 SWAP2 SWAP1 PUSH2 0x247 JUMP JUMPDEST PUSH1 0x40 MLOAD PUSH1 0x20 DUP2 DUP4 SUB SUB DUP2 MSTORE SWAP1 PUSH1 0x40 MSTORE DUP1 MLOAD SWAP1 PUSH1 0x20 ADD KECCAK256 SWAP1 POP DUP1 PUSH1 0x0 SHR SWAP3 POP POP POP SWAP2 SWAP1 POP JUMP JUMPDEST PUSH1 0x0 DUP1 DUP3 PUSH1 0x40 MLOAD PUSH1 0x20 ADD PUSH2 0x147 SWAP2 SWAP1 PUSH2 0x2B0 JUMP JUMPDEST PUSH1 0x40 MLOAD PUSH1 0x20 DUP2 DUP4 SUB SUB DUP2 MSTORE SWAP1 PUSH1 0x40 MSTORE DUP1 MLOAD SWAP1 PUSH1 0x20 ADD KECCAK256 PUSH1 0x40 MLOAD PUSH2 0x169 SWAP1 PUSH2 0x195 JUMP JUMPDEST DUP2 SWAP1 PUSH1 0x40 MLOAD DUP1 SWAP2 SUB SWAP1 PUSH1 0x0 CREATE2 SWAP1 POP DUP1 ISZERO DUP1 ISZERO PUSH2 0x189 JUMPI RETURNDATASIZE PUSH1 0x0 DUP1 RETURNDATACOPY RETURNDATASIZE PUSH1 0x0 REVERT JUMPDEST POP SWAP1 POP DUP1 SWAP2 POP POP SWAP2 SWAP1 POP JUMP JUMPDEST PUSH2 0x100 DUP1 PUSH2 0x39F DUP4 CODECOPY ADD SWAP1 JUMP JUMPDEST PUSH1 0x0 DUP2 CALLDATALOAD SWAP1 POP PUSH2 0x1B1 DUP2 PUSH2 0x387 JUMP JUMPDEST SWAP3 SWAP2 POP POP JUMP JUMPDEST PUSH1 0x0 PUSH1 0x20 DUP3 DUP5 SUB SLT ISZERO PUSH2 0x1CD JUMPI PUSH2 0x1CC PUSH2 0x375 JUMP JUMPDEST JUMPDEST PUSH1 0x0 PUSH2 0x1DB DUP5 DUP3 DUP6 ADD PUSH2 0x1A2 JUMP JUMPDEST SWAP2 POP POP SWAP3 SWAP2 POP POP JUMP JUMPDEST PUSH2 0x1ED DUP2 PUSH2 0x2CB JUMP JUMPDEST DUP3 MSTORE POP POP JUMP JUMPDEST PUSH2 0x204 PUSH2 0x1FF DUP3 PUSH2 0x2CB JUMP JUMPDEST PUSH2 0x33D JUMP JUMPDEST DUP3 MSTORE POP POP JUMP JUMPDEST PUSH2 0x21B PUSH2 0x216 DUP3 PUSH2 0x2DD JUMP JUMPDEST PUSH2 0x34F JUMP JUMPDEST DUP3 MSTORE POP POP JUMP JUMPDEST PUSH2 0x232 PUSH2 0x22D DUP3 PUSH2 0x309 JUMP JUMPDEST PUSH2 0x359 JUMP JUMPDEST DUP3 MSTORE POP POP JUMP JUMPDEST PUSH2 0x241 DUP2 PUSH2 0x333 JUMP JUMPDEST DUP3 MSTORE POP POP JUMP JUMPDEST PUSH1 0x0 PUSH2 0x253 DUP3 DUP8 PUSH2 0x20A JUMP JUMPDEST PUSH1 0x1 DUP3 ADD SWAP2 POP PUSH2 0x263 DUP3 DUP7 PUSH2 0x1F3 JUMP JUMPDEST PUSH1 0x14 DUP3 ADD SWAP2 POP PUSH2 0x273 DUP3 DUP6 PUSH2 0x221 JUMP JUMPDEST PUSH1 0x20 DUP3 ADD SWAP2 POP PUSH2 0x283 DUP3 DUP5 PUSH2 0x221 JUMP JUMPDEST PUSH1 0x20 DUP3 ADD SWAP2 POP DUP2 SWAP1 POP SWAP6 SWAP5 POP POP POP POP POP JUMP JUMPDEST PUSH1 0x0 PUSH1 0x20 DUP3 ADD SWAP1 POP PUSH2 0x2AA PUSH1 0x0 DUP4 ADD DUP5 PUSH2 0x1E4 JUMP JUMPDEST SWAP3 SWAP2 POP POP JUMP JUMPDEST PUSH1 0x0 PUSH1 0x20 DUP3 ADD SWAP1 POP PUSH2 0x2C5 PUSH1 0x0 DUP4 ADD DUP5 PUSH2 0x238 JUMP JUMPDEST SWAP3 SWAP2 POP POP JUMP JUMPDEST PUSH1 0x0 PUSH2 0x2D6 DUP3 PUSH2 0x313 JUMP JUMPDEST SWAP1 POP SWAP2 SWAP1 POP JUMP JUMPDEST PUSH1 0x0 PUSH32 0xFF00000000000000000000000000000000000000000000000000000000000000 DUP3 AND SWAP1 POP SWAP2 SWAP1 POP JUMP JUMPDEST PUSH1 0x0 DUP2 SWAP1 POP SWAP2 SWAP1 POP JUMP JUMPDEST PUSH1 0x0 PUSH20 0xFFFFFFFFFFFFFFFFFFFFFFFFFFFFFFFFFFFFFFFF DUP3 AND SWAP1 POP SWAP2 SWAP1 POP JUMP JUMPDEST PUSH1 0x0 DUP2 SWAP1 POP SWAP2 SWAP1 POP JUMP JUMPDEST PUSH1 0x0 PUSH2 0x348 DUP3 PUSH2 0x363 JUMP JUMPDEST SWAP1 POP SWAP2 SWAP1 POP JUMP JUMPDEST PUSH1 0x0 DUP2 SWAP1 POP SWAP2 SWAP1 POP JUMP JUMPDEST PUSH1 0x0 DUP2 SWAP1 POP SWAP2 SWAP1 POP JUMP JUMPDEST PUSH1 0x0 PUSH2 0x36E DUP3 PUSH2 0x37A JUMP JUMPDEST SWAP1 POP SWAP2 SWAP1 POP JUMP JUMPDEST PUSH1 0x0 DUP1 REVERT JUMPDEST PUSH1 0x0 DUP2 PUSH1 0x60 SHL SWAP1 POP SWAP2 SWAP1 POP JUMP JUMPDEST PUSH2 0x390 DUP2 PUSH2 0x333 JUMP JUMPDEST DUP2 EQ PUSH2 0x39B JUMPI PUSH1 0x0 DUP1 REVERT JUMPDEST POP JUMP INVALID PUSH1 0x80 PUSH1 0x40 MSTORE CALLVALUE DUP1 ISZERO PUSH2 0x10 JUMPI PUSH1 0x0 DUP1 REVERT JUMPDEST POP PUSH1 0xE1 DUP1 PUSH2 0x1F PUSH1 0x0 CODECOPY PUSH1 0x0 RETURN INVALID PUSH1 0x80 PUSH1 0x40 MSTORE CALLVALUE DUP1 ISZERO PUSH1 0xF JUMPI PUSH1 0x0 DUP1 REVERT JUMPDEST POP PUSH1 0x4 CALLDATASIZE LT PUSH1 0x32 JUMPI PUSH1 0x0 CALLDATALOAD PUSH1 0xE0 SHR DUP1 PUSH4 0x3408E470 EQ PUSH1 0x37 JUMPI DUP1 PUSH4 0x557ED1BA EQ PUSH1 0x51 JUMPI JUMPDEST PUSH1 0x0 DUP1 REVERT JUMPDEST PUSH1 0x3D PUSH1 0x6B JUMP JUMPDEST PUSH1 0x40 MLOAD PUSH1 0x48 SWAP2 SWAP1 PUSH1 0x88 JUMP JUMPDEST PUSH1 0x40 MLOAD DUP1 SWAP2 SUB SWAP1 RETURN JUMPDEST PUSH1 0x57 PUSH1 0x73 JUMP JUMPDEST PUSH1 0x40 MLOAD PUSH1 0x62 SWAP2 SWAP1 PUSH1 0x88 JUMP JUMPDEST PUSH1 0x40 MLOAD DUP1 SWAP2 SUB SWAP1 RETURN JUMPDEST PUSH1 0x0 CHAINID SWAP1 POP SWAP1 JUMP JUMPDEST PUSH1 0x0 TIMESTAMP SWAP1 POP SWAP1 JUMP JUMPDEST PUSH1 0x82 DUP2 PUSH1 0xA1 JUMP JUMPDEST DUP3 MSTORE POP POP JUMP JUMPDEST PUSH1 0x0 PUSH1 0x20 DUP3 ADD SWAP1 POP PUSH1 0x9B PUSH1 0x0 DUP4 ADD DUP5 PUSH1 0x7B JUMP JUMPDEST SWAP3 SWAP2 POP POP JUMP JUMPDEST PUSH1 0x0 DUP2 SWAP1 POP SWAP2 SWAP1 POP JUMP INVALID LOG2 PUSH5 0x6970667358 0x22 SLT KECCAK256 0xA7 0xD1 RETURNDATACOPY DUP3 0x22 0xDB 0xB2 0xDD 0x2D 0xFC MOD BLOCKHASH 0xC4 0xA7 0x21 0xF8 PUSH5 0xA56E584C88 MSTORE8 ORIGIN SWAP14 0xAE 0xEC 0xD3 PUSH26 0x908E0764736F6C63430008070033A2646970667358221220C8F0 SIGNEXTEND 0xF 0x4E PC EXP SWAP1 PUSH19 0x2D62EEE7F794E3FAD80EDB9AB6A79FA2135C14 0xD9 0x2F 0x27 SGT PUSH5 0x736F6C6343 STOP ADDMOD SMOD STOP CALLER "
		},
		"gasEstimates": {
			"creation": {
				"codeDepositCost": "247200",
				"executionCost": "287",
				"totalCost": "247487"
			},
			"external": {
				"createContract3(uint256)": "infinite",
				"getAddress(uint256)": "infinite"
			}
		},
		"methodIdentifiers": {
			"createContract3(uint256)": "d4d7a0e9",
			"getAddress(uint256)": "b93f9b0a"
		}
	},
	"abi": [
		{
			"inputs": [
				{
					"internalType": "uint256",
					"name": "_salt",
					"type": "uint256"
				}
			],
			"name": "createContract3",
			"outputs": [
				{
					"internalType": "address",
					"name": "",
					"type": "address"
				}
			],
			"stateMutability": "nonpayable",
			"type": "function"
		},
		{
			"inputs": [
				{
					"internalType": "uint256",
					"name": "_salt",
					"type": "uint256"
				}
			],
			"name": "getAddress",
			"outputs": [
				{
					"internalType": "address",
					"name": "",
					"type": "address"
				}
			],
			"stateMutability": "view",
			"type": "function"
		}
	]
}